{
  "transactions": [
    {
      "hash": "0x5dbb4267d4dd5d613f09ba6a9f0bf1368bc80a3b5ed83a69144daf7a9059becd",
      "transactionType": "CALL",
      "contractName": "TokenFactory",
      "contractAddress": "0x6CB5Bf60515e679F8Bc6ce5cC63db2e26cd8081d",
      "function": "create(address,bytes):(address)",
      "arguments": [
        "0x78d97C8261D71F5ceF21d32F3454B401eE7a8465",
        "0x0000000000000000000000000000000000000000000000000000000000000020000000000000000000000000a471c9508acf13867282f36cfce5c41d719ab78b000000000000000000000000000000000000000000000000000000000000000a00000000000000000000000000000000000000000000000000000000000000010000000000000000000000000000000000000000000000000000000000000220000000000000000000000000000000000000000000000000000000000000026000000000000000000000000000000000000000000000000000000000000002a000000000000000000000000000000000000000000000000000000000000002e000000000000000000000000000000000000000000000000000000000000003200000000000000000000000000000000000000000000000000000000000000380000000000000000000000000000000000000000000000000000000000000000000000000000000000000000000000000000000000000000000000000000009c0000000000000000000000000000000000000000000000000000000000000000000000000000000000000000000000000000000000000000000000000000000000000000000000000000000000000000000000000000000000000000000000000000000000000000000000000000000000000000000000000000000000000000000000000000000000000000000000000000000000000000000000000000000000000000000000000000000000000000000000000000000000de0b6b3a76400000000000000000000000000000000000000000000000000000000000000000004546573740000000000000000000000000000000000000000000000000000000000000000000000000000000000000000000000000000000000000000000000035453540000000000000000000000000000000000000000000000000000000000000000000000000000000000000000000000000000000000000000000000000454657374000000000000000000000000000000000000000000000000000000000000000000000000000000000000000000000000000000000000000000000012546573742532306465736372697074696f6e0000000000000000000000000000000000000000000000000000000000000000000000000000000000000000002b68747470733a2f2f676f65726c692e70657273697374656e63652e7774662f6170692f707265766965772f000000000000000000000000000000000000000000000000000000000000000000000000000000000000000000000000000000060862475630494842735957356c64484d39573130736547396d5a6a30774f325a31626d4e306157397549484e6c644856774b436c375932397362334a4e6232526c4b45685451696b7359334a6c5958526c51324675646d467a4b4451774d4377304d4441704c4746755a32786c5457396b5a53684552556453525556544b547477624746755a58527a505674755a58636755477868626d56304b4459774c4449774d43777a4d4441734d5449774c4445734f4441704c47356c64794251624746755a58516f4f4441734d6a41774c4449774d4377794d4441734d6977334d436b73626d5633494642735957356c644367794d4377794d4441734d5467774c4445304d4377304c444d774d436b73626d5633494642735957356c644367784d4377794d4441734d6a41774c4445304d43777a4c4449784d436b73626d5633494642735957356c644367794e6977794d4441734d5451774c4449304d4377784c4445784d536b73626d5633494642735957356c644367794d4441734d6a41774c4449774d4377774c4445734d6a49774b53786466575a31626d4e3061573975494752795958636f4b58746959574e725a334a766457356b4b4441704c474e795a5746305a5564796157516f4b537877624746755a58527a4c6d31686343676b5054346b4c6d52795958636f4b536c395a6e5675593352706232346759334a6c5958526c52334a705a4367706532786c6443416b50544d71626d39706332556f6547396d5a6973394c6a41784b54746d6233496f62475630494851394d44743050444d324d4474304b7a306b4b5874735a5851676154313361575230614338794b3364705a48526f4b6d4e76637968304b53787a5057686c6157646f644338794b3364705a48526f4b6e4e70626968304b54747a64484a766132556f4d5441774c4445774d4377784d4441704c477870626d556f64326c6b644767764d69786f5a576c6e614851764d6978704c484d706658316a6247467a63794251624746755a585237593239756333527964574e306233496f4a4378304c476b73637978684c4755706533526f61584d75636d466b6158567a50535173644768706379353450585173644768706379353550576b73644768706379357a59324673595849396379783061476c7a4c6d46755a32786c50544173644768706379357a6347566c5a4431684c48526f61584d7559323973623349395a58316b636d46334b436c37624756304943513964476870637935344c58526f61584d75636d466b6158567a4c48513964476870637935354c58526f61584d75636d466b6158567a4c476b3964476870637935344b33526f61584d75636d466b6158567a4c484d3964476870637935354b33526f61584d75636d466b6158567a4c4745395a484a6864326c755a304e76626e526c6548517559334a6c5958526c556d466b6157467352334a685a476c6c626e516f4a4378304c476b73637977794d4441734d6a41704c475539593239736233496f4d5441774c4445774d4377784d4441704c477739593239736233496f4d5441774c4445774d4377784d4441704f3245755957526b5132397362334a54644739774b4441735a53353062314e30636d6c755a7967704b5378684c6d466b5a454e766247397955335276634367754e5378734c6e5276553352796157356e4b436b704c4745755957526b5132397362334a54644739774b4445735a53353062314e30636d6c755a7967704b53786b636d46336157356e51323975644756346443356d6157787355335235624755395953787562314e30636d39725a5367704f32786c644342755058526f61584d756543743061476c7a4c6e4e6a595778686369706a62334d6f6447687063793568626d64735a536b73636a313061476c7a4c6e6b72644768706379357a593246735958497163326c754b48526f61584d755957356e624755704f32567362476c776332556f626978794c48526f61584d75636d466b6158567a4c48526f61584d75636d466b6158567a4b53786b636d46336157356e51323975644756346443356d615778735533523562475539496e646f6158526c4969783061476c7a4c6d46755a32786c4b7a313061476c7a4c6e4e775a57566b6658303d000000000000000000000000000000000000000000000000000000000000000000000000000000000000000000000000000000000000000200000000000000000000000000000000000000000000000000000000000000400000000000000000000000000000000000000000000000000000000000000180000000000000000000000000000000000000000000000000000000000000000300000000000000000000000000000000000000000000000000000000000000a000000000000000000000000000000000000000000000000000000000000000e000000000000000000000000000000000000000000000000000000000000001000000000000000000000000000000000000000000000000000000000000000120000000000000000000000000000000000000000000000000000000000000001270352d312e352e302e6d696e2e6a732e677a0000000000000000000000000000000000000000000000000000000000000000000000000000000000000000000000000000000000000000000000000000000000000000000000000000000000000000000000000000000000000000000000000000000000000000000000000000000000000000000000000000000000000000000000000000000000000000000100000000000000000000000000000000000000000000000000000000000000a000000000000000000000000000000000000000000000000000000000000000e000000000000000000000000000000000000000000000000000000000000001000000000000000000000000000000000000000000000000000000000000000120000000000000000000000000000000000000000000000000000000000000001667756e7a6970536372697074732d302e302e312e6a7300000000000000000000000000000000000000000000000000000000000000000000000000000000000000000000000000000000000000000000000000000000000000000000000000000000000000000000000000000000000000000000000000000000000000000000"
      ],
      "rpc": "https://eth-goerli.g.alchemy.com/v2/KbASyiHXJ3to8p40_vE8VLFbTbnOMwBp",
      "transaction": {
        "type": "0x02",
        "from": "0xa471c9508acf13867282f36cfce5c41d719ab78b",
        "to": "0x6cb5bf60515e679f8bc6ce5cc63db2e26cd8081d",
        "gas": "0x1a8228",
        "value": "0x0",
        "data": "0xa3f697ba00000000000000000000000078d97c8261d71f5cef21d32f3454b401ee7a846500000000000000000000000000000000000000000000000000000000000000400000000000000000000000000000000000000000000000000000000000000cc00000000000000000000000000000000000000000000000000000000000000020000000000000000000000000a471c9508acf13867282f36cfce5c41d719ab78b000000000000000000000000000000000000000000000000000000000000000a00000000000000000000000000000000000000000000000000000000000000010000000000000000000000000000000000000000000000000000000000000220000000000000000000000000000000000000000000000000000000000000026000000000000000000000000000000000000000000000000000000000000002a000000000000000000000000000000000000000000000000000000000000002e000000000000000000000000000000000000000000000000000000000000003200000000000000000000000000000000000000000000000000000000000000380000000000000000000000000000000000000000000000000000000000000000000000000000000000000000000000000000000000000000000000000000009c0000000000000000000000000000000000000000000000000000000000000000000000000000000000000000000000000000000000000000000000000000000000000000000000000000000000000000000000000000000000000000000000000000000000000000000000000000000000000000000000000000000000000000000000000000000000000000000000000000000000000000000000000000000000000000000000000000000000000000000000000000000000de0b6b3a76400000000000000000000000000000000000000000000000000000000000000000004546573740000000000000000000000000000000000000000000000000000000000000000000000000000000000000000000000000000000000000000000000035453540000000000000000000000000000000000000000000000000000000000000000000000000000000000000000000000000000000000000000000000000454657374000000000000000000000000000000000000000000000000000000000000000000000000000000000000000000000000000000000000000000000012546573742532306465736372697074696f6e0000000000000000000000000000000000000000000000000000000000000000000000000000000000000000002b68747470733a2f2f676f65726c692e70657273697374656e63652e7774662f6170692f707265766965772f000000000000000000000000000000000000000000000000000000000000000000000000000000000000000000000000000000060862475630494842735957356c64484d39573130736547396d5a6a30774f325a31626d4e306157397549484e6c644856774b436c375932397362334a4e6232526c4b45685451696b7359334a6c5958526c51324675646d467a4b4451774d4377304d4441704c4746755a32786c5457396b5a53684552556453525556544b547477624746755a58527a505674755a58636755477868626d56304b4459774c4449774d43777a4d4441734d5449774c4445734f4441704c47356c64794251624746755a58516f4f4441734d6a41774c4449774d4377794d4441734d6977334d436b73626d5633494642735957356c644367794d4377794d4441734d5467774c4445304d4377304c444d774d436b73626d5633494642735957356c644367784d4377794d4441734d6a41774c4445304d43777a4c4449784d436b73626d5633494642735957356c644367794e6977794d4441734d5451774c4449304d4377784c4445784d536b73626d5633494642735957356c644367794d4441734d6a41774c4449774d4377774c4445734d6a49774b53786466575a31626d4e3061573975494752795958636f4b58746959574e725a334a766457356b4b4441704c474e795a5746305a5564796157516f4b537877624746755a58527a4c6d31686343676b5054346b4c6d52795958636f4b536c395a6e5675593352706232346759334a6c5958526c52334a705a4367706532786c6443416b50544d71626d39706332556f6547396d5a6973394c6a41784b54746d6233496f62475630494851394d44743050444d324d4474304b7a306b4b5874735a5851676154313361575230614338794b3364705a48526f4b6d4e76637968304b53787a5057686c6157646f644338794b3364705a48526f4b6e4e70626968304b54747a64484a766132556f4d5441774c4445774d4377784d4441704c477870626d556f64326c6b644767764d69786f5a576c6e614851764d6978704c484d706658316a6247467a63794251624746755a585237593239756333527964574e306233496f4a4378304c476b73637978684c4755706533526f61584d75636d466b6158567a50535173644768706379353450585173644768706379353550576b73644768706379357a59324673595849396379783061476c7a4c6d46755a32786c50544173644768706379357a6347566c5a4431684c48526f61584d7559323973623349395a58316b636d46334b436c37624756304943513964476870637935344c58526f61584d75636d466b6158567a4c48513964476870637935354c58526f61584d75636d466b6158567a4c476b3964476870637935344b33526f61584d75636d466b6158567a4c484d3964476870637935354b33526f61584d75636d466b6158567a4c4745395a484a6864326c755a304e76626e526c6548517559334a6c5958526c556d466b6157467352334a685a476c6c626e516f4a4378304c476b73637977794d4441734d6a41704c475539593239736233496f4d5441774c4445774d4377784d4441704c477739593239736233496f4d5441774c4445774d4377784d4441704f3245755957526b5132397362334a54644739774b4441735a53353062314e30636d6c755a7967704b5378684c6d466b5a454e766247397955335276634367754e5378734c6e5276553352796157356e4b436b704c4745755957526b5132397362334a54644739774b4445735a53353062314e30636d6c755a7967704b53786b636d46336157356e51323975644756346443356d6157787355335235624755395953787562314e30636d39725a5367704f32786c644342755058526f61584d756543743061476c7a4c6e4e6a595778686369706a62334d6f6447687063793568626d64735a536b73636a313061476c7a4c6e6b72644768706379357a593246735958497163326c754b48526f61584d755957356e624755704f32567362476c776332556f626978794c48526f61584d75636d466b6158567a4c48526f61584d75636d466b6158567a4b53786b636d46336157356e51323975644756346443356d615778735533523562475539496e646f6158526c4969783061476c7a4c6d46755a32786c4b7a313061476c7a4c6e4e775a57566b6658303d000000000000000000000000000000000000000000000000000000000000000000000000000000000000000000000000000000000000000200000000000000000000000000000000000000000000000000000000000000400000000000000000000000000000000000000000000000000000000000000180000000000000000000000000000000000000000000000000000000000000000300000000000000000000000000000000000000000000000000000000000000a000000000000000000000000000000000000000000000000000000000000000e000000000000000000000000000000000000000000000000000000000000001000000000000000000000000000000000000000000000000000000000000000120000000000000000000000000000000000000000000000000000000000000001270352d312e352e302e6d696e2e6a732e677a0000000000000000000000000000000000000000000000000000000000000000000000000000000000000000000000000000000000000000000000000000000000000000000000000000000000000000000000000000000000000000000000000000000000000000000000000000000000000000000000000000000000000000000000000000000000000000000100000000000000000000000000000000000000000000000000000000000000a000000000000000000000000000000000000000000000000000000000000000e000000000000000000000000000000000000000000000000000000000000001000000000000000000000000000000000000000000000000000000000000000120000000000000000000000000000000000000000000000000000000000000001667756e7a6970536372697074732d302e302e312e6a7300000000000000000000000000000000000000000000000000000000000000000000000000000000000000000000000000000000000000000000000000000000000000000000000000000000000000000000000000000000000000000000000000000000000000000000",
        "nonce": "0x235",
        "accessList": []
      },
      "additionalContracts": [
        {
          "transactionType": "CREATE",
          "address": "0x1289CdD6c521cC3C372a5dA5fF330034bBC50800",
          "initCode": "608060405234801561001057600080fd5b5060405161052738038061052783398101604081905261002f9161026d565b818161003d82826000610046565b50505050610357565b61004f8361007c565b60008251118061005c5750805b156100775761007583836100c460201b6100291760201c565b505b505050565b6100858161015b565b6040516001600160a01b03821681527fbc7cd75a20ee27fd9adebab32041f755214dbc6bffa90cc0225b39da2e5c2d3b9060200160405180910390a150565b6060823b6100e5576040516337f2022960e01b815260040160405180910390fd5b600080846001600160a01b031684604051610100919061033b565b600060405180830381855af49150503d806000811461013b576040519150601f19603f3d011682016040523d82523d6000602084013e610140565b606091505b50909250905061015082826101f8565b925050505b92915050565b61016e816101f260201b6100bf1760201c565b61019a5760405163310365cd60e21b81526001600160a01b038216600482015260240160405180910390fd5b806101d17f360894a13ba1a3210667c828492db98dca3e2076cc3735a920a3ca505d382bbc60001b61023060201b6100c51760201c565b80546001600160a01b0319166001600160a01b039290921691909117905550565b3b151590565b60608215610207575080610155565b8151156102175781518083602001fd5b60405163062536b160e41b815260040160405180910390fd5b90565b634e487b7160e01b600052604160045260246000fd5b60005b8381101561026457818101518382015260200161024c565b50506000910152565b6000806040838503121561028057600080fd5b82516001600160a01b038116811461029757600080fd5b60208401519092506001600160401b03808211156102b457600080fd5b818501915085601f8301126102c857600080fd5b8151818111156102da576102da610233565b604051601f8201601f19908116603f0116810190838211818310171561030257610302610233565b8160405282815288602084870101111561031b57600080fd5b61032c836020830160208801610249565b80955050505050509250929050565b6000825161034d818460208701610249565b9190910192915050565b6101c1806103666000396000f3fe60806040523661001357610011610017565b005b6100115b6100276100226100c8565b610100565b565b6060823b61004a576040516337f2022960e01b815260040160405180910390fd5b600080846001600160a01b031684604051610065919061015c565b600060405180830381855af49150503d80600081146100a0576040519150601f19603f3d011682016040523d82523d6000602084013e6100a5565b606091505b50915091506100b48282610124565b925050505b92915050565b3b151590565b90565b60006100fb7f360894a13ba1a3210667c828492db98dca3e2076cc3735a920a3ca505d382bbc546001600160a01b031690565b905090565b3660008037600080366000845af43d6000803e80801561011f573d6000f35b3d6000fd5b606082156101335750806100b9565b8151156101435781518083602001fd5b60405163062536b160e41b815260040160405180910390fd5b6000825160005b8181101561017d5760208186018101518583015201610163565b50600092019182525091905056fea2646970667358221220351526e1c68e6d35d324a6255f8b20e9aebee80bf9fb67a85fd586705974239a64736f6c6343000810003300000000000000000000000078d97c8261d71f5cef21d32f3454b401ee7a846500000000000000000000000000000000000000000000000000000000000000400000000000000000000000000000000000000000000000000000000000000000"
        },
        {
          "transactionType": "CREATE",
          "address": "0xd7f67A2Ad549A88BA26E1d4661106fB9B62102EA",
          "initCode": "630000060980600e6000396000f30062475630494842735957356c64484d39573130736547396d5a6a30774f325a31626d4e306157397549484e6c644856774b436c375932397362334a4e6232526c4b45685451696b7359334a6c5958526c51324675646d467a4b4451774d4377304d4441704c4746755a32786c5457396b5a53684552556453525556544b547477624746755a58527a505674755a58636755477868626d56304b4459774c4449774d43777a4d4441734d5449774c4445734f4441704c47356c64794251624746755a58516f4f4441734d6a41774c4449774d4377794d4441734d6977334d436b73626d5633494642735957356c644367794d4377794d4441734d5467774c4445304d4377304c444d774d436b73626d5633494642735957356c644367784d4377794d4441734d6a41774c4445304d43777a4c4449784d436b73626d5633494642735957356c644367794e6977794d4441734d5451774c4449304d4377784c4445784d536b73626d5633494642735957356c644367794d4441734d6a41774c4449774d4377774c4445734d6a49774b53786466575a31626d4e3061573975494752795958636f4b58746959574e725a334a766457356b4b4441704c474e795a5746305a5564796157516f4b537877624746755a58527a4c6d31686343676b5054346b4c6d52795958636f4b536c395a6e5675593352706232346759334a6c5958526c52334a705a4367706532786c6443416b50544d71626d39706332556f6547396d5a6973394c6a41784b54746d6233496f62475630494851394d44743050444d324d4474304b7a306b4b5874735a5851676154313361575230614338794b3364705a48526f4b6d4e76637968304b53787a5057686c6157646f644338794b3364705a48526f4b6e4e70626968304b54747a64484a766132556f4d5441774c4445774d4377784d4441704c477870626d556f64326c6b644767764d69786f5a576c6e614851764d6978704c484d706658316a6247467a63794251624746755a585237593239756333527964574e306233496f4a4378304c476b73637978684c4755706533526f61584d75636d466b6158567a50535173644768706379353450585173644768706379353550576b73644768706379357a59324673595849396379783061476c7a4c6d46755a32786c50544173644768706379357a6347566c5a4431684c48526f61584d7559323973623349395a58316b636d46334b436c37624756304943513964476870637935344c58526f61584d75636d466b6158567a4c48513964476870637935354c58526f61584d75636d466b6158567a4c476b3964476870637935344b33526f61584d75636d466b6158567a4c484d3964476870637935354b33526f61584d75636d466b6158567a4c4745395a484a6864326c755a304e76626e526c6548517559334a6c5958526c556d466b6157467352334a685a476c6c626e516f4a4378304c476b73637977794d4441734d6a41704c475539593239736233496f4d5441774c4445774d4377784d4441704c477739593239736233496f4d5441774c4445774d4377784d4441704f3245755957526b5132397362334a54644739774b4441735a53353062314e30636d6c755a7967704b5378684c6d466b5a454e766247397955335276634367754e5378734c6e5276553352796157356e4b436b704c4745755957526b5132397362334a54644739774b4445735a53353062314e30636d6c755a7967704b53786b636d46336157356e51323975644756346443356d6157787355335235624755395953787562314e30636d39725a5367704f32786c644342755058526f61584d756543743061476c7a4c6e4e6a595778686369706a62334d6f6447687063793568626d64735a536b73636a313061476c7a4c6e6b72644768706379357a593246735958497163326c754b48526f61584d755957356e624755704f32567362476c776332556f626978794c48526f61584d75636d466b6158567a4c48526f61584d75636d466b6158567a4b53786b636d46336157356e51323975644756346443356d615778735533523562475539496e646f6158526c4969783061476c7a4c6d46755a32786c4b7a313061476c7a4c6e4e775a57566b6658303d"
        }
      ]
    },
    {
      "hash": "0x3a689f47cbaafc7f1ac6718efc70ba88b97fa30de1145d9962087c095673a38b",
      "transactionType": "CALL",
      "contractName": "TokenProxy",
      "contractAddress": "0x1289CdD6c521cC3C372a5dA5fF330034bBC50800",
      "function": null,
      "arguments": null,
      "rpc": "https://eth-goerli.g.alchemy.com/v2/KbASyiHXJ3to8p40_vE8VLFbTbnOMwBp",
      "transaction": {
        "type": "0x02",
        "from": "0xa471c9508acf13867282f36cfce5c41d719ab78b",
        "to": "0x1289cdd6c521cc3c372a5da5ff330034bbc50800",
        "gas": "0x17260",
        "value": "0x0",
        "data": "0x40d097c3000000000000000000000000a471c9508acf13867282f36cfce5c41d719ab78b",
        "nonce": "0x236",
        "accessList": []
      },
      "additionalContracts": []
    }
  ],
  "receipts": [
    {
      "transactionHash": "0x5dbb4267d4dd5d613f09ba6a9f0bf1368bc80a3b5ed83a69144daf7a9059becd",
      "transactionIndex": "0x1",
      "blockHash": "0x67c2798949e6a19f5d3e17c4c6313df5e6db03a9b9c5ce9368bf677f7a00e8a3",
      "blockNumber": "0x8144df",
      "from": "0xa471C9508Acf13867282f36cfCe5c41D719ab78B",
      "to": "0x6CB5Bf60515e679F8Bc6ce5cC63db2e26cd8081d",
      "cumulativeGasUsed": "0x198fd6",
      "gasUsed": "0x137ecb",
      "contractAddress": null,
      "logs": [
        {
          "address": "0x1289CdD6c521cC3C372a5dA5fF330034bBC50800",
          "topics": [
            "0xbc7cd75a20ee27fd9adebab32041f755214dbc6bffa90cc0225b39da2e5c2d3b"
          ],
          "data": "0x00000000000000000000000078d97c8261d71f5cef21d32f3454b401ee7a8465",
          "blockHash": "0x67c2798949e6a19f5d3e17c4c6313df5e6db03a9b9c5ce9368bf677f7a00e8a3",
          "blockNumber": "0x8144df",
          "transactionHash": "0x5dbb4267d4dd5d613f09ba6a9f0bf1368bc80a3b5ed83a69144daf7a9059becd",
          "transactionIndex": "0x1",
          "logIndex": "0x0",
          "removed": false
        },
        {
          "address": "0x34c9a99727A140C0595B602a28fDFa8BCdFA0FA3",
          "topics": [
            "0xe30784b97c85804517b7c35cb82a1ba9f5f5e7a90ceb80ffab76908cb9b1a708",
            "0x0000000000000000000000006cb5bf60515e679f8bc6ce5cc63db2e26cd8081d",
            "0x000000000000000000000000a471c9508acf13867282f36cfce5c41d719ab78b"
          ],
          "data": "0x0000000000000000000000001289cdd6c521cc3c372a5da5ff330034bbc50800",
          "blockHash": "0x67c2798949e6a19f5d3e17c4c6313df5e6db03a9b9c5ce9368bf677f7a00e8a3",
          "blockNumber": "0x8144df",
          "transactionHash": "0x5dbb4267d4dd5d613f09ba6a9f0bf1368bc80a3b5ed83a69144daf7a9059becd",
          "transactionIndex": "0x1",
          "logIndex": "0x1",
          "removed": false
        },
        {
          "address": "0x1289CdD6c521cC3C372a5dA5fF330034bBC50800",
          "topics": [
            "0x8be0079c531659141344cd1fd0a4f28419497f9722a3daafe3b4186f6b6457e0",
            "0x0000000000000000000000000000000000000000000000000000000000000000",
            "0x000000000000000000000000a471c9508acf13867282f36cfce5c41d719ab78b"
          ],
          "data": "0x",
          "blockHash": "0x67c2798949e6a19f5d3e17c4c6313df5e6db03a9b9c5ce9368bf677f7a00e8a3",
          "blockNumber": "0x8144df",
          "transactionHash": "0x5dbb4267d4dd5d613f09ba6a9f0bf1368bc80a3b5ed83a69144daf7a9059becd",
          "transactionIndex": "0x1",
          "logIndex": "0x2",
          "removed": false
        },
        {
          "address": "0x1289CdD6c521cC3C372a5dA5fF330034bBC50800",
          "topics": [
            "0xddf252ad1be2c89b69c2b068fc378daa952ba7f163c4a11628f55a4df523b3ef",
            "0x0000000000000000000000000000000000000000000000000000000000000000",
            "0x000000000000000000000000a471c9508acf13867282f36cfce5c41d719ab78b",
            "0x0000000000000000000000000000000000000000000000000000000000000000"
          ],
          "data": "0x",
          "blockHash": "0x67c2798949e6a19f5d3e17c4c6313df5e6db03a9b9c5ce9368bf677f7a00e8a3",
          "blockNumber": "0x8144df",
          "transactionHash": "0x5dbb4267d4dd5d613f09ba6a9f0bf1368bc80a3b5ed83a69144daf7a9059becd",
          "transactionIndex": "0x1",
          "logIndex": "0x3",
          "removed": false
        },
        {
          "address": "0x1289CdD6c521cC3C372a5dA5fF330034bBC50800",
          "topics": [
            "0x7f26b83ff96e1f2b6a682f133852f6798a09c465da95921460cefb3847402498"
          ],
          "data": "0x0000000000000000000000000000000000000000000000000000000000000001",
          "blockHash": "0x67c2798949e6a19f5d3e17c4c6313df5e6db03a9b9c5ce9368bf677f7a00e8a3",
          "blockNumber": "0x8144df",
          "transactionHash": "0x5dbb4267d4dd5d613f09ba6a9f0bf1368bc80a3b5ed83a69144daf7a9059becd",
          "transactionIndex": "0x1",
          "logIndex": "0x4",
          "removed": false
        }
      ],
      "status": "0x1",
      "logsBloom": "0x00000000000000000000000000000000400000000000000004800000000000000000000000000000020000000000000000000000000800001000000000000000000000000100000000000008000002000083000000000000000000000000000002000000020000000000000000000800000000000000000000000014000000400000000008000000000000000000000000000000000080000000000400000000000000000000000000010000000400000000000000000000000000000000000000000022000000000000000000040000000000400000000000000000000020000000000000000000000000000000000000000080000000000000000000001000",
      "type": "0x2",
      "effectiveGasPrice": "0xb2d05e12"
    },
    {
      "transactionHash": "0x3a689f47cbaafc7f1ac6718efc70ba88b97fa30de1145d9962087c095673a38b",
      "transactionIndex": "0x2",
      "blockHash": "0x67c2798949e6a19f5d3e17c4c6313df5e6db03a9b9c5ce9368bf677f7a00e8a3",
      "blockNumber": "0x8144df",
      "from": "0xa471C9508Acf13867282f36cfCe5c41D719ab78B",
      "to": "0x1289CdD6c521cC3C372a5dA5fF330034bBC50800",
      "cumulativeGasUsed": "0x1ae9b8",
      "gasUsed": "0x159e2",
      "contractAddress": null,
      "logs": [
        {
          "address": "0x1289CdD6c521cC3C372a5dA5fF330034bBC50800",
          "topics": [
            "0xddf252ad1be2c89b69c2b068fc378daa952ba7f163c4a11628f55a4df523b3ef",
            "0x0000000000000000000000000000000000000000000000000000000000000000",
            "0x000000000000000000000000a471c9508acf13867282f36cfce5c41d719ab78b",
            "0x0000000000000000000000000000000000000000000000000000000000000001"
          ],
          "data": "0x",
          "blockHash": "0x67c2798949e6a19f5d3e17c4c6313df5e6db03a9b9c5ce9368bf677f7a00e8a3",
          "blockNumber": "0x8144df",
          "transactionHash": "0x3a689f47cbaafc7f1ac6718efc70ba88b97fa30de1145d9962087c095673a38b",
          "transactionIndex": "0x2",
          "logIndex": "0x5",
          "removed": false
        }
      ],
      "status": "0x1",
      "logsBloom": "0x00000000000000000000000000000000000000000000000000000000000000000000000000000000000000000000000000000000000000000000000000040000000000000100000000000008000000000082000000040000000000000000000002000000020000000000000000000800000000000000000000000010000000000000000008000000000000000000000000000000000000000000000000000000000000000000000000010000000000000000000000000000000000000000000000000002000000000000000000000000000000000000000000000000000060000000000000000000000000000000000000000000000000000000000000000000",
      "type": "0x2",
      "effectiveGasPrice": "0xb2d05e12"
    }
  ],
  "libraries": [],
  "pending": [],
  "path": "/Users/patrickgenevich/Code/mathblocks/broadcast/Mint.s.sol/5/run-latest.json",
  "returns": {},
  "timestamp": 1676091197,
  "chain": 5,
  "multi": false,
  "commit": "a015ee7"
}